:100000000C9459020C9491020C9491020C94D620F9
:100010000C9491020C9491020C9491020C94910214
:100020000C9491020C9491020C94F5280C94C8291C
:100030000C9400230C9491020C9491020C94910264
:100040000C9491020C9491020C9491020C949102E4
:100050000C9491020C94B8230C9491020C9491028C
:100060000C9491020C9491020C9491020C949102C4
:100070000C9491020C9491020C9491020C949102B4
:100080000C9491020C9491020C9491020C949102A4
:100090000C9491020C9491020C9491020C94910294
:1000A0000C9491020C9491020C949102290014007A
:1000B0001A000800150017002B00040016000700A6
:1000C00009000A00E1001D001B00060019000500E0
:1000D0004C002A004C6491682C422A610000000008
:1000E00000000000000000002D00130012000C00B2
:1000F00018001C00340033000F000E000D000B0030
:10010000E500380037003600100011004C002A00CE
:100110004C64906828412A61000000000000000043
:10012000000000000100310023021E0224023102FF
:1001300026022002210234023400350201000100AF
:10014000010001002F022F00010001000100010049
:10015000010001000000000000000000000000009D
:100160002D00220225022E022E001F02270235003A
:100170004F00520051005000010001000100010039
:100180003002300001000100005C010001000100AC
:100190000000000000000000000000003A003B00EA
:1001A0003C003D003E003F0001001E001F002000FB
:1001B000210022004000410042004300440045006D
:1001C00001000100005C01000100010000000000CE
:1001D00000000000000000002D00220225022E0277
:1001E0002E00010001002700260025002400230026
:1001F0000100380037003600010001000100010055
:1002000001000100010001000000000000000000EA
:1002100000000000010001000100010001000100D8
:1002200001000100010001000100010001000100C6
:1002300001000100010001000100010001000100B6
:1002400001000100000000000000000000000000AC
:100250000100010001000100010001000100010096
:100260000100010001000100010001000100010086
:100270000100010001000100010001000100010076
:10028000000000000000000000000000000000006E
:10029000000000002A2B28000000000000000000E1
:1002A0000000000000000029000000002C1E342087
:1002B000212224342627252E362D3738271E1F20AD
:1002C0002122232425263333362E37381F040506F2
:1002D0000708090A0B0C0D0E0F1011121314151636
:1002E0001718191A1B1C1D2F3130232D3504050634
:1002F0000708090A0B0C0D0E0F1011121314151616
:100300001718191A1B1C1D2F3130354C0000000026
:1003100000000000000000000000000000000000DD
:1003200000000000000000000000000000000000CD
:100330007E0F00D4FFFFFFC70000007818036300A2
:100340006C0061007700340034002000720065000A
:100350007600320000000C037900660075006B0027
:10036000750000000403090409025B00030100A0FA
:10037000FA09040000010301010009211101000133
:10038000224000070581030800010904010002035F
:10039000000000092111010001222200070582034B
:1003A00020000107050303200001090402000103E6
:1003B000000000092111010001227B0007058403D0
:1003C0002000011201000200000008465906000149
:1003D00000010200010660FF0961A1010962150028
:1003E00026FF009520750881020963150026FF008D
:1003F000952075089102C005010902A10185020935
:1004000001A10005091901290815002501950875A4
:100410000181020501093009311581257F95027599
:1004200008810609381581257F9501750881060523
:100430000C0A38021581257F950175088106C0C018
:1004400005010980A101850319012AB700150126BC
:10045000B700950175108100C0050C0901A1018547
:100460000419012AA002150126A002950175108128
:1004700000C005010906A101050719E029E71500DB
:10048000250195087501810295017508810105070F
:10049000190029FF150026FF009506750881000543
:1004A00008190129059505750191029501750391BA
:1004B00001C011241FBECFEFDAE0DEBFCDBF04B60E
:1004C00003FE18C080910D0390910E03A0910F03BD
:1004D000B09110038730904BA740B04B59F4109265
:1004E0000D0310920E0310920F0310921003E0E020
:1004F000F8E3099511E0A0E0B1E0E6E1F9E502C01A
:1005000005900D92A83FB107D9F723E0A8EFB1E01D
:1005100001C01D92AD30B207E1F70E9438160C946D
:10052000452C0C940000A5E0B0E0E9E9F2E00C9461
:10053000B22B6B837C838D838C819D81892B21F0F1
:10054000CA0189238F3F31F480E081702596E2E073
:100550000C94CE2B8B81F9CF409123015091240133
:100560006091250170912601809127010E949302DC
:100570008823A1F0109225010E9460238160782FCA
:1005800090932701809326014091230150912401EB
:1005900060912501809127010E94A10540911E01D3
:1005A00050911F01609120017091210180912201E1
:1005B0000E9493028823A1F0109220010E946023E0
:1005C0008160782F909322018093210140911E0138
:1005D00050911F0160912001809122010E94A1058C
:1005E0004091190150911A0160911B0170911C01F9
:1005F00080911D010E9493028823A1F010921B019B
:100600000E9460238160782F90931D0180931C01CC
:100610004091190150911A0160911B0180911D01B7
:100620000E94A1054091140150911501609116019D
:1006300070911701809118010E9493028823A1F004
:10064000109216010E9460238160782F9093180108
:10065000809317014091140150911501609116018A
:10066000809118010E94A10540910F015091100145
:100670006091110170911201809113010E94930207
:100680008823A1F0109211010E9460238160782FCD
:10069000909313018093120140910F01509110012A
:1006A00060911101809113010E94A10540910A01FE
:1006B00050910B0160910C0170910D0180910E0120
:1006C0000E9493028823A1F010920C010E946023E3
:1006D0008160782F90930E0180930D0140910A0163
:1006E00050910B0160910C0180910E010E94A105B7
:1006F0004091050150910601609107017091080138
:10070000809109010E9493028823A1F010920701B1
:100710000E9460238160782F9093090180930801E3
:1007200040910501509106016091070180910901F6
:100730000E94A105409100015091010160910201C8
:1007400070910301809104010E9493028823A1F01B
:10075000109202010E9460238160782F909304011F
:1007600080930301409100015091010160910201C9
:10077000809104010E94A105089581112CC081E09F
:100780006623B1F0809320010E9460238160782F5E
:10079000909322018093210140911E0150911F01ED
:1007A00060912001809122010E94A10581E00895BD
:1007B000809325010E9460238160782F9093270108
:1007C00080932601409123015091240160912501DD
:1007D00080912701E9CF813041F5662399F080931C
:1007E00016010E9460238160782F909318018093F6
:1007F00017014091140150911501609116018091EB
:100800001801D2CF80931B010E9460238160782F52
:1008100090931D0180931C014091190150911A0180
:1008200060911B0180911D01BFCF823049F581E0AD
:10083000662399F080930C010E9460238160782FD9
:1008400090930E0180930D0140910A0150910B018C
:1008500060910C0180910E01A7CF809311010E943D
:1008600060238160782F909313018093120140914F
:100870000F0150911001609111018091130194CFEB
:10088000833009F093CF81E0662399F080930201D1
:100890000E9460238160782F90930401809303016C
:1008A0004091000150910101609102018091040189
:1008B0007BCF809307010E9460238160782F909303
:1008C0000901809308014091050150910601609152
:1008D00007018091090168CF84E0089581E00895BF
:1008E00081E008950E947004089508950E9475049F
:1008F0000895A5E0B0E0EFE7F4E00C94B12B498354
:100900005A833091FF0189819A81311119C0662380
:1009100099F0222389F00E94120A182F682F8981EA
:100920009A810E94EE0969817A81812F0E94931E2B
:100930002596E3E00C94CD2B0E94000A182FF3CFEC
:100940000E94120A69817A81F1CFFC01262F408131
:1009500051816281738184810E947904089581E0CC
:100960000895CF93DF93D82FC92F60E00E94A5048C
:100970006D2F7C2F0E947604DF91CF910895E1E0E6
:10098000F0E0DF0102C0AA0FBB1F6A95E2F7BD01CC
:10099000DF0102C0AA0FBB1F4A95E2F76A2B01C014
:1009A000EE0F2A95EAF7962F9823961302C08E2B06
:1009B0000895E0958E230895242F462F682F809167
:1009C00018020E94BF040E944D0908950E94191246
:1009D00008950E941C12089508950E94DC080E9448
:1009E000EC042FEF84E39CE0215080409040E1F73D
:1009F00000C0000008950E94ED040E94DC230895C9
:100A00000E94ED040E94002408950F931F93CF933A
:100A1000DF938C0161E00E94A504EC01B8010E9403
:100A20003719811106C080E0DF91CF911F910F919E
:100A30000895B801CE010E9472048823A1F3B80181
:100A4000CE010E94E11F882371F3B801CE010E94FC
:100A50007B1A882341F3B801CE010E94531F8823DB
:100A600011F3F8018281882381F0CB35FDE5DF07A2
:100A700031F178F4CE3DECE5DE07C1F0CA35FDE595
:100A8000DF07D1F0C115DC4571F0C8010E946E048A
:100A9000CBCFCC35EDE5DE0761F0C73ADD45A9F7F0
:100AA0000E940005C0CF0E94FB04BDCF0E94BD0E76
:100AB000F7CF0E94F70DE9CF0E94010EE6CF0E940A
:100AC000050EE3CF0E94DD220E947F0508950E945B
:100AD00083050E94E222089508950E946C050895FE
:100AE00081E008950E94700508950895CF93C82F5E
:100AF0000E946D058C2F0E947205CF91089580E0B1
:100B00000E94760508950E94FD210E9476050895B1
:100B1000CF930E94FD21C82F8091FA018C1779F0A4
:100B2000C093FA010E946C236093FB017093FC0157
:100B30008093FD019093FE018C2F0E947605CF914A
:100B40000895ABE0B0E0E7EAF5E00C94B22B4F83F8
:100B5000588769877A878B8761110E94420D1E82B0
:100B600085E0FE013796DE01119601900D928A957F
:100B7000E1F78C819D81892B61F449815A816B81D8
:100B80007C818D819E810E94630C2B96E2E00C9407
:100B9000CE2B89819A8189238F3F79F3CE010196EB
:100BA0000E94AF048111E9CFF0CFFC0180819181D7
:100BB0000E943B0A0895CF93C82F8823B9F08CEF89
:100BC0008C0F813AA8F46C2F809128019091290113
:100BD0000E946922882329F08C2F0E94000D0E9418
:100BE000630D8C2F0E94F80C0E94630DCF91089525
:100BF00080E28C0F883048F4C77081E001C0880F14
:100C0000CA95EAF70E94230DEFCF8BE58C0F833056
:100C100038F42C2F2452330BC9010E942B22E6CF2B
:100C2000E8E5EC0FE73150F4F0E0EE0FFF1FE45978
:100C3000FE4F808191810E944122D8CFC03FB0F207
:100C40008C2F0E94BC160E948F17D0CF882379F179
:100C50009CEF980F913A28F40E94000D0E94630DBA
:100C6000089590E2980F983050F4877091E001C099
:100C7000990F8A95EAF7892F0E94290DEFCF9BE5FE
:100C8000980F933028F490E080E00E942B22089582
:100C900098E5980F973128F490E080E00E94412277
:100CA0000895803F20F00E9416170E948F17089524
:100CB0001F93CF93DF93182FEB010E94DB05209742
:100CC00039F4812F0E942606DF91CF911F9108955C
:100CD0008FE99FE00197F1F700C000002197EFCF67
:100CE00070E060E0893311F460E570E00E9458061E
:100CF0000895882321F00E94230D0E94630D08951A
:100D0000882321F00E94290D0E94630D0895B0E010
:100D1000A0E0EDE8F6E00C94AA2B6C01D62FC72FCB
:100D2000FC011281F580F2948FE0F8220E94190DE7
:100D3000E82E8823B9F0E12E1123A1F08C2F807FBB
:100D4000803421F080E28D0F8830C8F08091E50278
:100D500082FF15C082E00E94C60D0E94190D91E02D
:100D6000E82EE9268C2F82958F70A82EB12C8C301E
:100D700008F067C0F501E95BF34D0C94952BE12C6D
:100D8000F1CF0C2F0F70C07F11F00295007F11235F
:100D900099F0002359F080E28D0F883010F0D111C6
:100DA00007C0802F0E94230D0E94630D8D2F41C02C
:100DB000802F0E94340DF8CF8D2F0E94260600232D
:100DC00009F43FC080E28D0F883010F0D11104C0CB
:100DD000802F0E94290D03C0802F0E943A0D0E948F
:100DE000630D2FC00C2F0F70C07FC03211F0029521
:100DF000007FDD2381F0D13009F466C0112309F4AE
:100E000070C0FF2009F466C0F601858180FFCECF57
:100E10008F7085835FC08091E50282FD35C011230C
:100E200059F0002329F0802F0E94230D0E94630DAA
:100E300080E00E94DB0505C080E00E9426060111CB
:100E4000C7CFE8E0AE1AB108F4E0AF16B10420F461
:100E50000E94FD210E947605EE2089F00E94150D6A
:100E600080FD0DC0F60112820E940F0D0E946109E3
:100E7000C6010E949C080E940F0D0E946D09CDB70B
:100E8000DEB7EAE00C94C62B112389F0F11006C0FE
:100E90000E94450D802B0E947906D3CFF1E0FF120E
:100EA000F7CF0E94450D802B0E944C0DCACFF11048
:100EB00006C00E94590D802F0E948006C2CF21E0FB
:100EC000F21609F4BECFF5CF112331F085E08F156E
:100ED00008F4B7CF802FDFCF94E09F1508F4B1CF8F
:100EE000EACFFF2041F3D93349F4FFEF27EE83E047
:100EF000F15020408040E1F700C000008D2F0E949B
:100F000026069FCF8C2F86958695837069F0813059
:100F100009F097CF8D2F9C2F9370111102C090E094
:100F200080E00E9441228DCF8D2F9C2F9370111154
:100F300002C090E080E00E942B2283CF8D2F1123EE
:100F400029F00E94BC160E948F177BCF0E941617B3
:100F5000FACF8C2F837081F5111173CF4D2F4295ED
:100F600046954770440F440F8D2F8F70042E01C09B
:100F7000880F0A94EAF72D2F2071D4FF07C02FE0C5
:100F800030E001C0220F4A95EAF72095C695C69534
:100F9000C370822BC23051F0C33059F0C13019F008
:100FA0000E943B094ECF0E9435094BCF0E94410958
:100FB00048CF0E94320945CF8695112311F08C2F1E
:100FC0008170882309F43DCF4D2F42954695477097
:100FD000440F440F8D2F8F70042E01C0880F0A9488
:100FE000EAF72D2F2071D4FF07C02FE030E001C0B9
:100FF000220F4A95EAF72095C695C695C370822BB5
:10100000C23051F0C33059F0C13019F00E948C0940
:1010100018CF0E94860915CF0E94920912CF0E9414
:101020004D090FCFCF70112329F08C2F0E94610939
:101030008D2F31CF8D2F0E9480068C2F0E946D093D
:1010400000CFD23F51F160F4D03FB9F0D13F81F0F1
:10105000112309F449C0F110A9CE8C2F8F7121C042
:10106000D33F11F1D43FA1F78091E50282FD26C064
:101070008C2F8F71112311F314C0112349F094E0C8
:101080009F1508F4DECE8C2F8F710E947A09D9CE7D
:10109000E5E0EF1508F4D5CEF6CF8C2F8F71111146
:1010A000CDCF0E946109CDCE112329F08C2F8F71F5
:1010B0000E945809C6CE0E945409C3CE112349F09C
:1010C000CF718C2F0E94610963E08C2F0E94A80DC4
:1010D000B8CE81E00E94C60DF1E0FF1508F0B1CE58
:1010E00082E00E94C60DADCEFF2059F0D93309F041
:1010F00005CF2FEF87EE93E0215080409040E1F73D
:10110000FBCE8C2F8F719ACF0F931F93CF93DF93CA
:10111000EC01688179818A810E94480A8C010E94D1
:1011200098090E943109B801CE010E948706DF911B
:10113000CF911F910F910895CF93DF93EC018B8195
:101140009C81892B29F08881998189238F3F51F4D3
:10115000DF91CF910895CE010E948408CE010E94B4
:10116000B104F6CFCE010E9405058111F4CF0E9493
:10117000190D882369F38A81882351F38091E50250
:1011800082FFE6CF82E00E94C60DE2CF90E080E0D1
:101190000E942B2290E080E00E9441220E94420D9A
:1011A0000E94630D0E94AA170E948F1708950E9443
:1011B000080D0E94C60808950E94310D0E94D708AC
:1011C0000895282F92959F70963091F060F4925F69
:1011D0009F70923030F481E0203F81F030F4283E5F
:1011E00030F080E008959A5FF3CF243FD1F708955F
:1011F00081E0283EE0F3213FA1F7F9CF0895FC01FB
:1012000083819481892B29F08081918189238F3F6B
:1012100011F480E00895808191810E943B0A0E9430
:10122000E1080895A5E0B0E0E8E1F9E00C94B22B04
:101230002596E2E00C94CE2BA6E0B0E0E2E2F9E0E5
:101240000C94B22B2696E2E00C94CE2B08950E94CB
:10125000260908950E942709809319020E94C60852
:10126000089508950E942A09089590911902892BE2
:101270000E942A0908959091190289230E942A093F
:1012800008959091190289270E942A0908950E94C1
:10129000260908950E94470908950E944A098093EB
:1012A00018020E94C608089580E00E944D09089522
:1012B00091E001C0990F8A95EAF7892F0E944D09A4
:1012C000089521E030E001C0220F8A95EAF780916D
:1012D0001802822B0E944D09089521E030E001C0E0
:1012E000220F8A95EAF720958091180282230E94A6
:1012F0004D09089521E030E001C0220F8A95EAF7F8
:101300008091180282270E944D0908959091180239
:10131000892B0E944D0908959091180289230E94FB
:101320004D0908959091180289270E944D0908954A
:1013300008959B01677091E001C0990F6A95EAF7E3
:1013400063E0369527956A95E1F7F901EE0FFF1FE7
:10135000E20FF31FE40FF51F50E040E0682F70E04C
:101360008191DF0111979B01042E02C036952795CC
:101370000A94E2F7217021952827292328272C9306
:101380004F5F5F4F4330510559F708959C01982FE7
:10139000977083E0369527958A95E1F7F901EE0F6E
:1013A000FF1FE20FF31FE60FF71F50E040E080E061
:1013B000219130E0092E02C0369527950A94E2F774
:1013C00021703327042E01C0220F0A94EAF7822BE2
:1013D0004F5F5F4F4330510559F70895282F862FEF
:1013E0009A3068F4263058F4622F70E026E0929F1D
:1013F000600D711D112440E052E00E94990908958A
:10140000292F9A3068F4863058F490E060E072E05A
:1014100036E0239F800D911D11240E94C609089576
:1014200080E00895B0E0A0E0E8E1FAE00C94AD2B94
:101430007C010091180280911902082BC7E0D0E0CE
:1014400010E0DC2EC8010C2E02C0959587950A94F9
:10145000E2F780FD09C02197A0F7D12C8D2DCDB7E3
:10146000DEB7E7E00C94C92BB7018C2F0E949210D5
:10147000019789F3F3CFCF93DF93D82FC92F0E9421
:10148000120A6D2F7C2F0E949210DF91CF91089548
:101490001F93CF93DF93162FD72F9091FF0199239E
:1014A00041F0862F972F0E943B0ADF91CF911F9129
:1014B0000895882381F0862F972F0E94120AC82F43
:1014C000682F812F9D2F0E94EE09612F7D2F8C2F79
:1014D0000E949210EACF862F972F0E94000AC82FF1
:1014E000F4CF1F93CF93DF93E0911A0216E080911F
:1014F0001B028E1304C0DF91CF911F910895CE2F50
:10150000D0E01E9FF0011124E45EFD4F4081518127
:1015100062817381848195810E941C09FE0131964C
:10152000E770E5CF40914C0250914D0260914E0220
:1015300070914F0280915002909151020E941C09BB
:1015400008951F93CF93DF9380915102807F09F01C
:1015500049C080914E02882309F444C080911A0248
:10156000C0911B0260914C0270914D02A0914F02FC
:10157000B0915002D62FD72316E0C81799F190E00A
:10158000109711F0DF3F19F401968770F6CF189F7E
:101590009001199F300D1124F901E45EFD4F418146
:1015A0004713F2CF40814613EFCF42814111ECCF78
:1015B000438154814A1B5B0B483C510528F78091BD
:1015C00051028F70806180935102F901EF5DFD4FF0
:1015D00080818F70806180838CE492E00E949C08FF
:1015E0000E94710ADF91CF911F910895ABE0B0E0A6
:1015F000ECEFFAE00C94AA2B8C0185E0F801DE01F7
:10160000179601900D928A95E1F7F801E2808CE43B
:10161000C82E82E0D82E60914F0270915002611561
:10162000710509F434C190914C0220914D02822F32
:1016300089238F3F09F42BC140815181A380B4805D
:10164000F0904E02F501E61BF70BFF2009F4D1C024
:1016500080915102382F307FE83CF10508F0A3C09B
:1016600031116DC0FE2C521316C0941314C0E1103A
:1016700012C08F708061809351020E94920AC6014D
:101680000E949C0880915102F80185838F2D2B9632
:10169000EAE00C94C62BA114B10429F0852F842311
:1016A0008F3F09F00DC180E0F82FF170DF2EE0913F
:1016B0001A0220911B0236E080FD1CC0EE2031F39F
:1016C00080915102816080935102F12CDFCF8E2FE7
:1016D00090E03E9FF0011124E45EFD4F61815613BE
:1016E00006C06081641303C06281E612E7CFFC018B
:1016F0003196E770E213EBCF4F8358878F8198853F
:101700000E943B0A292F22952F70903260F0225FB1
:101710002F70223078F49F7051F0F8019581907FFE
:1017200031F4D12C0AC09F7011F08823D1F3805E70
:101730008830B8F3C8010E949C08FD2CA7CF521333
:1017400006C0941304C0F801EE2009F46DC0C8016E
:101750000E94FF08882319F1EE2009F180915102BF
:10176000803270F020914C0230914D023A832983EF
:101770001B82BD82AC828E83CE0101960E949C08A2
:1017800086E0F801ACE4B2E001900D928A95E1F7B1
:101790000E94A10A0E94920AFF24F39477CFC80105
:1017A0000E949C08F9CF311113C07A2DBB86AA86FE
:1017B0006E2D8B850E9412098CE492E00E949C0899
:1017C00086E0F60111928A95E9F70E94920A7DCF90
:1017D0005213BDCF9413BBCFE110B9CFF80185836D
:1017E000C8010E949C0886E0F60111928A95E9F7EB
:1017F0004DCFE83CF10508F03DC0FE2CEE2079F21B
:1018000052132AC0941328C08091510280FD1BC03E
:10181000982F907FC1F0F8018583903F31F0982F89
:10182000907F905F8F70892B8583C8010E949C08F0
:1018300086E0F801ACE4B2E001900D928A95E1F700
:101840000E94920A23CF86E0F801ACE4B2E0019056
:101850000D928A95E1F71ACFC8010E94FF08811105
:101860008FCF80915102816080935102C8010E9404
:101870009C080CCF7A2DBB86AA866E2D8B850E9484
:10188000120986E0F60111928A95E9F7D9CFEE2088
:1018900009F485CFC8010E94FF08F82E882309F4B7
:1018A0007ECF86E0F801ACE4B2E001900D928A951B
:1018B000E1F78CE492E00E94D5050E94A10AC0CF16
:1018C00081E08E25F1CEACE0B0E0E9E6FCE00C94DE
:1018D000B12B4F83588769877A878B879C87CE0186
:1018E00007960E94F60A882369F08A859B85892BD2
:1018F00039F04F815885842F85238F3F09F071C0BF
:1019000016E065C086E0FE013796DE011196019073
:101910000D928A95E1F76A857B856115710581F3E2
:101920005F814885842F85238F3F51F320911B02CF
:1019300030E0C901019687709927E0911A02E817F3
:10194000190671F40E94DC0810921B0210921A0210
:1019500086E0ECE4F2E0DF011D928A95E9F7D0CF52
:1019600059834A837D836C8396E0929FD001939F35
:10197000B00D1124A45EBD4FFE01319601900D9271
:101980009A95E1F780931B020E94710AB9CF819F5B
:10199000C0011124845E9D4F0E94F60A8823E9F05D
:1019A000E0911A021E9FF0011124E45EFD4F408178
:1019B000518162817381848195810E941C0980918B
:1019C0001A0290E001968770992780931A028091FD
:1019D0001A0290911B028913DACF2C96E3E00C9443
:1019E000CD2B69857A858B859C850E941C0988CFC3
:1019F000682F80912801909129010E94A3220895C7
:101A0000682F80912801909129010E94A6220895B3
:101A100080912801909129010E94A9220895809126
:101A20005A02859585958595089580915A0287700B
:101A3000089590915A02977081E009F480E008952A
:101A400080916502089590916502982B90936502AC
:101A50000895982F9095809165028923809365025F
:101A6000089510926502089590916402982B9093C6
:101A700064020895982F9095809164028923809341
:101A80006402089510926402089580915B020895A3
:101A900008950E94480D08959091E50292FF08C0B4
:101AA00090915B02981721F080935B020E94490D90
:101AB000089580915B02882329F010925B0280E0F8
:101AC0000E94490D0895CF93DF93E0912801F09192
:101AD0002901809165028083E0912801F09129011C
:101AE000808190916402892B808390915B0299237D
:101AF00081F0E0912801F09129018081892B808378
:101B000080912801909129010E94572281110E9401
:101B1000590DC0912801D091290148E050E062E5BB
:101B200072E0CE010E94ED2B892B59F088E0FE0176
:101B3000A2E5B2E001900D928A95E1F7CE010E94F4
:101B40001122DF91CF91089508950E94A40D089568
:101B50009091E50292FF11C098E0899F90011124B5
:101B6000622B60935A020E94610980915A02859506
:101B7000859585950E94A50D08950E946109089597
:101B800010925A0280E00E94A50D089590915A0289
:101B90008095892380935A02282F277091F4282F4B
:101BA000082E000C330B9217130659F09091E502A2
:101BB00092FF07C08595859585950E946D090E94C5
:101BC000C00D08959091E50292FB222720F9281775
:101BD00069F080FB92F99093E5028091E402909184
:101BE000E5020E94340E82E00E94C60D08958091A5
:101BF000E50282FB882780F991E089270E94E20DA7
:101C0000089581E00E94E20D089580E00E94E20DB7
:101C100008956FEF7FEF90E080E00E942F2C0895F1
:101C200090E080E00E940B2C883E9E4F19F40E94A9
:101C3000C718089580E0089582E090E00E94032C88
:101C4000089583E090E00E94032C0895CF9384E0F0
:101C500090E00E94032CC82F82E290E00E94032CA7
:101C6000982F8C2FCF910895CF93682FC92F84E0A0
:101C700090E00E94112C6C2F82E290E00E94112CC7
:101C8000CF910895AB01BC018FE090E00E94232C1E
:101C90000895AB01BC0183E190E00E94232C0895DC
:101CA00060E070E0CB010E94490E089560E070E0B2
:101CB000CB010E94420E0E94500E089568EE7EEF06
:101CC00090E080E00E942F2C60E082E090E00E9493
:101CD000112C60E083E090E00E94112C1092190218
:101CE00060E084E090E00E94112C64E082E290E0E9
:101CF0000E94112C60E085E090E00E94112C60E0D1
:101D000086E090E00E94112C6FEF87E090E00E9447
:101D1000112C40E050E0BA0188E090E00E94232CB2
:101D200060E08DE090E00E94112C40E050E0BA01AC
:101D300088E190E00E94232C60E087E190E00E941F
:101D4000112C40E050E0BA018CE190E00E94232C7D
:101D500070E060E080E290E00E942F2C40E050E0D4
:101D6000BA0188E190E00E94232C80E00E94E018F4
:101D70000E941A190E94560E08950E945E0E089540
:101D8000682F8EE090E00E94112C08950E946C2331
:101D900060937A0270937B0280937C0290937D0221
:101DA0006093760270937702809378029093790221
:101DB00008950E946C2360937A0270937B02809353
:101DC0007C0290937D026093720270937302809301
:101DD0007402909375020895089508950E94ED0E7F
:101DE000089508950E94F10E089581EE91E10E94F8
:101DF000F3210E94EC0E0E94EE0E08950E94D31370
:101E00000895089508950E94010F0E94020F0895F9
:101E10000E94FD110E94750508950E9457230E949B
:101E20007C110E942A190E94EE130E942D130E9419
:101E3000080F0E94631A0E94671C0E94F8130E94F8
:101E4000F20E0895A5E0B0E0E8E2FFE00C94AA2BC2
:101E50000E94501388E6A82E82E0B82E750110E08B
:101E6000F70101917F01812F0E941F121F5F1A301D
:101E700009F440C00817A1F380917E0281FD0E9401
:101E800025120E94FE0EC82E00E0802F0E941F1215
:101E9000182FF50191915F01891731F1D82ED926BC
:101EA000F12CEE24E3948D2D8E21B1F0CC20A1F005
:101EB000F9820A8391E0812F8E2109F490E09B83BF
:101EC0000E9460238160782F9D838C8349815A8191
:101ED0006B818D810E94A105F394EE0CF6E0FF1258
:101EE000E2CFF501319710830F5F0A3071F60E943F
:101EF000C60E20C00813C0CF0E9460238C018091C1
:101F000066029091670208171907A1F08FEF898385
:101F10008A831B820E9460238160782F9D838C833B
:101F200049815A816B818D810E94A10510936702BE
:101F3000009366020E94D3130E94E91C81110E9443
:101F4000D90E0E94CB170E9488052596EAE00C94D2
:101F5000C62BCF93DF930E949710EC01811522E5E9
:101F6000920708F059C0811531E5930708F0ADC01C
:101F7000883E910518F5803E9105B8F5883A91059F
:101F800070F4853A910508F09AC08130910569F1A5
:101F90000497813A910548F1D0E0C0E026C0885A04
:101FA00091094797C8F7C85AD0E0CC0FDD1FC65635
:101FB000DE4F0990D881C02DD46417C0811540E54B
:101FC0009407B8F4C11580E4D80708F07BC0CF3F70
:101FD000D10509F028F4C03FD105F0F2D06505C065
:101FE000CE019A9581159F41B8F6CE01DF91CF9130
:101FF00008958370992721E030E002C0220F331F3B
:102000008A95E2F7C695C69540E2C49FE001112487
:10201000C22BD32BDD68E9CFC11586E5D80738F58B
:10202000C11525E5D20708F064C0C11534E5D30712
:10203000C8F49E01237033279C2F96959695C11561
:10204000D34508F047C0C1E0D0E002C0CC0FDD1F8F
:102050002A95E2F720E2929FC0011124C82BD92BC8
:10206000DC68C3CFDC2FCC27C46FD06ABECFC115CC
:102070003AE5D30788F4C11549E5D40708F044C010
:10208000CE0198558F3F910511F008F085CFDC2FD8
:10209000CC27C06FD06AA9CFCE019056811590424F
:1020A00008F07ACF8D2F8F710E94391190E0982F10
:1020B000882788279F719C012C2BE90123C0A497B6
:1020C000D06493CFDF70D06A90CFD82FCC27C16F68
:1020D000D06A8BCFC1E0D0E002C0CC0FDD1F2A95C3
:1020E000E2F730E2939FC0011124C82BD92BDA68A4
:1020F0007CCF8C2F0E943911C82FD0E0DC2FCC2749
:10210000CC27DF71D06271CF8C2F8F700E94391174
:1021100034E0D695C7953A95E1F7CF70DC2FC82FFC
:10212000D06963CF0E94931E0E94A90F0895803E3C
:102130009105C1F1C8F48133910509F47DC048F4DB
:102140008932910509F46DC08A32910509F47BC08A
:10215000089589339105D1F082389105B9F085331E
:10216000910509F459C00895843E9105C1F138F4F0
:10217000823E910521F1833E910531F10895863E1D
:102180009105C1F1873E9105E1F108952091E402A6
:10219000237009F065C02091E50223FF14C089E295
:1021A00090E008952091E40220FD43C03091E502C3
:1021B00030FF09C024FF4EC090E080E008952091D8
:1021C000E40222FDF7CF08952091E40222FD45C0EC
:1021D0003091E50230FD44C024FFF5CFEDCF2091D2
:1021E000E50221FFF0CF8091E40284FDE5CF87EE88
:1021F00090E008952091E40223FFE5CF24FDDCCF99
:10220000F6CF2091E40223FD2EC03091E50231FF8C
:10221000E3CF84EE90E008952091E40225FFD3CF30
:10222000BECF2091E40225FD21C02091E50223FFCD
:10223000CACF89E390E0C7CF2091E40226FFC3CF45
:102240008AE290E008952091E40226FFBCCF81E36A
:1022500090E0089583EE90E0089582EE90E0089576
:1022600080EE90E0089586EE90E0089585E390E09A
:1022700008959091E40292FF06C0282F287128301B
:10228000F9F4877F846093FF06C0282F28712831D6
:10229000F1F4877E84612091E50220FF06C0382F8B
:1022A00038713830D9F4877F816021FF06C0282F2C
:1022B00028712831D1F4877E816194FD877E08954D
:1022C000282F24712430F9F68B7F8860DCCF282FEB
:1022D0002471243101F78B7E8861DDCF382F317175
:1022E000313019F78E7F8860E0CF282F217121319E
:1022F00021F78E7E8861E1CF1092E0021092E10218
:102300001092E2021092E3020895CF92DF92EF92D0
:10231000FF92CF93DF9300D000D0CDB7DEB76B0133
:102320007C010E94D31381110EC00E946C23C61A37
:10233000D70AE80AF90AC092E002D092E102E092DC
:10234000E202F092E3020F900F900F900F90DF9156
:10235000CF91FF90EF90DF90CF900895A4E0B0E090
:10236000E4EBF1E10C94B22B0E94D313882371F0BB
:102370000E946C2369837A838B839C8369817A8131
:102380008B819C812496E2E00C94CE2B0E946C23DE
:1023900069837A838B839C838091E0029091E10230
:1023A000A091E202B091E30229813A814B815C81E4
:1023B000280F391F4A1F5B1F29833A834B835C8395
:1023C000DDCF80E008950E94090E08950E94501309
:1023D0008FE39CE90197F1F700C000000E945013C1
:1023E00080E00E941F1280FF04C00E94E3110E943F
:1023F000DC2308950E94E61108950E94100E8111B9
:1024000002C00E94BD0E0E941C0E80937E020E949C
:10241000260E9093E5028093E4020E94FA110E9436
:10242000210E0E943209809118020E944A090895E3
:1024300008950E94181208950E94AC020895E82F92
:10244000F0E0EF50FD4F80810895089580EA8A956D
:10245000F1F7089500C008950E9426120895089586
:102460000E942F120895EF92FF921F93CF93DF9354
:1024700000D000D00F92CDB7DEB70E94D313182F33
:102480006091FB02882309F449C01A821982FE0177
:10249000339683E0DF011D928A95E9F7862F90E05D
:1024A00032977F01BF018F509D4F0E9406148823F1
:1024B000F1F08091E60290E045E050E0B7018F50E6
:1024C0009D4F0E94ED2B21E020937F02892BD1F4B8
:1024D00010E00E94E904812F0F900F900F900F9051
:1024E0000F90DF91CF911F91FF90EF900895809111
:1024F0007F02882369F385E0D7011D928A95E9F769
:1025000010927F02A091E602B0E0AF50BD4F85E08F
:10251000F70101900D928A95E1F7DBCF70E06F50E3
:102520007D4F8091E60290E08F509D4F0E94911464
:102530000E943012D0CFF894E82FE295EF70F0E0CF
:1025400041A18F7021E030E0B90102C0660F771F12
:102550008A95E2F7CB01962F9095942391A392A1AF
:10256000892B82A378940895CF93DF93CEECD1E0AA
:1025700089918F3F11F00E949B1281E0C33DD807E3
:10258000B9F7C8ECD1E089918F3F11F00E949B12FE
:1025900081E0CE3CD807B9F7DF91CF910895B0E044
:1025A000A0E0E5EDF2E10C94AC2BEC01D62E062F69
:1025B00010E0C80182539E4F7C01FC0120812F3F17
:1025C00009F444C0F894E22FE295EF70F0E031A1F5
:1025D0002F7081E090E001C0880F2A95EAF7932FD1
:1025E000982B91A392A18095892382A378940E942D
:1025F0002A12E8ECF1E031E0C12C21912F3F59F192
:10260000A22FA295AF70B0E090968C9190E02F70C1
:1026100002C0959587952A95E2F780FD1CC0832F0F
:10262000C82A330F81E0EE3CF80739F7F7018081C3
:102630008F3F11F00E949B1261E0C11001C060E069
:102640008D2D0E942C12C00FD11FC882CDB7DEB7CE
:10265000E8E00C94C82B80E0E3CF80912A018091C0
:102660002A0195E0811190E09093FB0285E0891B9F
:102670008093E6020E94B4128AE0E1EFF2E0DF010B
:10268000982F1D929A95E9F7E7EEF2E0DF011D928F
:102690008A95E9F785E00E9493130E94E604089565
:1026A000AAE0B0E0E6E5F3E10C94B12B1A821982BE
:1026B000FE01339688E0DF011D928A95E9F710E06C
:1026C000612FCE0101960E94CF121F5F1530C1F716
:1026D0004AE050E0BE016F5F7F4F87EE92E00E94BC
:1026E000ED2BAC0121E0892B09F420E0452B49F0CA
:1026F0008AE0FE013196A7EEB2E001900D928A9534
:10270000E1F76091FB0270E06F507D4F45E087EE8E
:1027100092E00E949413182F0E943312812B2A9664
:10272000E3E00C94CD2B0895B0E0A0E0EAE9F3E1FA
:102730000C94AD2BD82EE92EF62E072FC42F222372
:1027400049F081E0809382020E946023909381028D
:102750008093800210918202111107C010E0812F36
:10276000CDB7DEB7E7E00C94C92B80918002909141
:1027700081020E948923059788F3D0E0AE016D2D78
:102780007E2D8F2D902F0E94ED2B892B51F0AE01C5
:102790006D2D7E2D8F2D902F0E94FA2B109282028C
:1027A000DECF10E0FBCF80918502811107C00E942F
:1027B000742B882351F081E08093850281E0909111
:1027C0008502913009F080E0089582E080938502CF
:1027D0000E946F2BF3CF0E94D31308950E94EB1336
:1027E00080932A010E94D31381110E943E14089500
:1027F0000E94D313811102C00E944114089581E008
:10280000909186029A3008F080E008950F931F930C
:10281000CF93DF93EC01162F072F809186028A3029
:10282000C0F4612F702FCE010E948E14C82F811129
:1028300022C0809186028F3FB9F40E94602390935A
:102840008402809383028C2FDF91CF911F910F918F
:10285000089580918302909184020E948923843F8D
:102860009140F8F6C0E0EFCF8F5F809386028A3008
:1028700020F7C1E0E8CF10928602E5CF0E949020B9
:1028800008950E9493200895B0E0A0E0EAE4F4E106
:102890000C94AC2BFA0169017801C82F880FDD0B6D
:1028A0003097B1F0DE0193E0AA0FBB1F9A95E1F7D4
:1028B000A55DBE4F11968D919C91129789579D4FA2
:1028C0004C9150E0E417F50708F4AF010E94FA2B91
:1028D000CE010E947D21182F8823D1F0E114F1044C
:1028E000B9F083E0CC0FDD1F8A95E1F7FE01E55DCD
:1028F000FE4F438150E0E416F50608F4A701C55DDC
:10290000DE4F6C817D8169577D4FC6010E94FA2B95
:10291000812FCDB7DEB7E8E00C94C82B0E94BD151F
:1029200008950E94E1150895A8E0B0E0EAE9F4E115
:102930000C94B02B8091A5029091A602A091A702C1
:10294000B091A802BC01CD010E94982311E0643629
:1029500071058105910520F10E94AE11DC01CB01CA
:102960000296A11DB11D89839A83AB83BC8310E0BD
:1029700000E030E020E044E050E0BE016F5F7F4FB8
:1029800084E00E944414182F882351F00E946C2385
:102990006093A5027093A6028093A7029093A80269
:1029A000812F2896E4E00C94CC2BA5E0B0E0EBED71
:1029B000F4E10C94A62B662E5A01722E832E902ED3
:1029C000C12E01E010E09E012F5F3F4F50E040E03C
:1029D00070E060E00E944414D82E8823C9F1D5012C
:1029E0008D919D910D90BC91A02DBC01CD010E94B7
:1029F0009823643671058105910510F18701272D13
:102A0000382D50E040E070E060E0862D0E944414D4
:102A1000D82EB701892D9C2D0E94641A91E029813E
:102A2000281390E0D92239F00E946C23F5016083CD
:102A30007183828393838D2D2596EEE00C94C22BB7
:102A4000B701892D9C2D0E94641A99818913D6CFD4
:102A5000A701692D7C2D872D982D0E94FA2BEBCF95
:102A6000A2E0B0E0E6E3F5E10C94AE2B0091D301D7
:102A70001091D401095F1F4F82E0E82EF12C9E01D6
:102A80002F5F3F4F41EA52E063E082E00E94D5149D
:102A9000182F882321F0CE0101960E94791D812FE5
:102AA0002296E6E00C94CA2BA5E0B0E0EAE5F5E159
:102AB0000C94AC2B6B010091D3011091D4010F5FEA
:102AC0001F4F85E0E82EF12C9E012F5F3F4F4DE90F
:102AD00052E061E080E00E94D514882349F095E03F
:102AE000FE013196A8E9B2E001900D929A95E1F7C6
:102AF00095E0E8E9F2E0D60101900D929A95E1F7B0
:102B00002596E8E00C94C82BB0E0A0E0EAE8F5E1F7
:102B10000C94AA2BF82EE92ED62EC72E8A010E94DD
:102B2000FF13AA24A394B12C882319F08AE0A82EBD
:102B3000B12CC1E0D0E06D2D7C2D8F2D9E2DF801A4
:102B40000995811104C02196AC16BD062CF4CDB7B1
:102B5000DEB7EAE00C94C62BCC9F9001CD9F300DE0
:102B6000300D112490E080E045E34A95F1F7000034
:102B7000019682179307C1F7DECF0F931F93CF9370
:102B8000DF93D82FC92F8B0144E555E10E948415AE
:102B9000811106C080E0DF91CF911F910F910895C0
:102BA00040E355E1B8018D2F9C2F0E9484158823A6
:102BB00089F344E954E1B8018D2F9C2F0E948415BC
:102BC000EACFA2E0B0E0E7EEF5E10C94B02BFB0118
:102BD0000091D3011091D401C801019625E0DC01D8
:102BE00001900D922A95E1F765E070E00E94641A69
:102BF000F8018083CE0101960E946E1D89819A8121
:102C0000F8019087878362E070E0CE0101960E9410
:102C1000641AF801868361857285838594850091A5
:102C200094021091950220919602309197026017BC
:102C300071078207930751F0609394027093950295
:102C400080939602909397020E9485112296E4E069
:102C50000C94CC2B0E94D5250E940D0F0E94E225DA
:102C600008950E94E7250E94220F0E9401260895E0
:102C70000E94F9220E94BB250E94F50E0E942A168E
:102C80000E9431160E94030FFBCF8091AF0280FF9C
:102C90000DC06091580170E0660F771F60387105B4
:102CA00070F56115710569F1862F089581FF07C0E0
:102CB0006091580184E0689FB0011124EFCF6091CA
:102CC000580182FD0AC08091AE028823A9F02091AC
:102CD000570160915801821710F088E0ECCF869F71
:102CE000C001112433E0880F991F3A95E1F7622F54
:102CF00070E00E94812BD2CF68E070E0D5CF8FE7E3
:102D0000089581E008958091AF0280FF0CC060912A
:102D1000540170E075956795759567956115710516
:102D200049F1862F089581FF06C06091540170E03B
:102D300075956795F3CF6091540182FD0BC090911A
:102D4000AD029923A1F0609153018091540196172F
:102D500038F0682F70E06038710500F38FE7089550
:102D6000899FC001112470E00E94812BF4CF61E0A3
:102D700070E0D7CF81E00895803F31F40E9445167E
:102D800081958093B3020895813F19F40E944516FE
:102D9000F8CF823F31F40E94451681958093B202AC
:102DA0000895833F19F40E944516F8CF893F29F40E
:102DB0000E9483168093B40208958A3F21F40E94F2
:102DC00083168195F7CF8B3F31F40E94831681954E
:102DD0008093B50208958C3F19F40E948316F8CFB2
:102DE0009CE0980F953070F4845F990B21E030E0FF
:102DF00001C0220F8A95EAF78091B102822B80935D
:102E0000B10208958D3F31F48091AF0281608093CB
:102E1000AF0208958E3F21F48091AF028260F7CF18
:102E20008F3FB9F78091AF028460F1CF4091B20239
:102E3000803F59F48091B30287FF0DC01092B30216
:102E400041110BC01092AE0208C0813F81F4809105
:102E5000B30218169CF3442381F08091B402909140
:102E6000B502892B09F05AC01092AD020895823F35
:102E700049F447FFF0CF1092B2028091B302811162
:102E8000ECCFE0CF833F19F41416ACF3E4CF90916C
:102E9000B402893F29F41916F4F61092B402DBCF7C
:102EA0008A3F19F497FFD7CFF8CF9091B5028B3FA7
:102EB00029F497FFD0CF1092B502CDCF8C3F19F4F3
:102EC0001916CCF3C8CF9CE0980F953090F4845F2E
:102ED000990B21E030E0B90102C0660F771F8A9597
:102EE000E2F7CB0180959091B10289238093B102E2
:102EF000B2CF8D3F31F48091AF028E7F8093AF02CD
:102F0000AACF8E3F21F48091AF028D7FF7CF8F3F04
:102F100009F0A1CF8091AF028B7FF0CF08950E947E
:102F200060232091B2023091B302232B21F08093D1
:102F3000AB029093AC022091B4023091B502232BE6
:102F400021F08093A9029093AA0280EB92E00E9464
:102F50001C22089586E0E0EBF2E0DF011D928A95E5
:102F6000E9F71092AE021092AD021092AF020895EE
:102F7000FC01828181110DC0838181110AC084818D
:102F8000811107C081E09581911101C080E08170BD
:102F9000089581E0FCCFA6E0B0E0E1EDF7E10C940C
:102FA000B12B86E0E0EBF2E0DE01119601900D928C
:102FB0008A95E1F71092B2021092B3021092B40215
:102FC0001092B5028B819C81892B89F08091AB0294
:102FD0009091AC020E9489239C018091AE028823CB
:102FE000C9F1909159019217130608F440C08D81E0
:102FF0009E81892B91F08091A9029091AA020E9452
:1030000089239C018091AD02882309F471C09091BD
:1030100055019217130608F479C0BE016F5F7F4F08
:1030200080EB92E00E94B122811105C080EB92E01A
:103030000E94B81781110E948F1786E0FE01319619
:10304000A0EBB2E001900D928A95E1F72696E3E0BD
:103050000C94CD2B40915A019AE0499FA001112474
:103060004217530720F68F5F8093AE0202C08F3F56
:10307000D1F71B81112359F00E9445169FEF1116BD
:103080000CF491E0899F802D11248093B2021C8161
:10309000112359F00E9445169FEF11160CF491E090
:1030A000899F802D11248093B3023091B202332383
:1030B00009F49DCF2091B302222309F498CF45EB68
:1030C0003403C0011124992359F09093B20245EBC7
:1030D000240390011124332339F03093B30287CFB6
:1030E00081E08093B202F3CF81E08093B3027FCF7F
:1030F000409156019AE0499FA001112442175307BD
:1031000008F08BCF8F5F8093AD0202C08F3FD1F765
:103110001D81112359F00E9483169FEF11160CF4A4
:1031200091E0899F802D11248093B4021E81112388
:1031300059F00E9483169FEF11160CF491E0899FBD
:10314000802D11248093B5023091B402332309F409
:1031500064CF2091B502222309F45FCF45EB3403FD
:10316000C0011124992359F09093B40245EB240334
:1031700090011124332339F03093B5024ECF81E012
:103180008093B402F3CF81E08093B50246CF83E20F
:1031900090E00E94032C833289F484E290E00E9444
:1031A000032C893059F485E290E00E94032C91E0D1
:1031B000843109F090E0892F8170089580E0FCCF80
:1031C000CF93C82F6FEF811163E283E290E00E94FA
:1031D000112C6FEFC11169E084E290E00E94112C84
:1031E0006FEFC11164E185E290E00E94112CCF9154
:1031F00008950895A4E0B0E0E0E0F9E10C94B22B6A
:1032000086E290E00E94032C282F30E050E040E05E
:10321000CA01B9012496E2E00C94CE2B0895CF9315
:10322000C62F0E940E196C2F86E290E00E94112C8E
:10323000CF91089580E00E94E01860E070E0CB013B
:103240000E940F190E940D1E0E94F01E81E00E9434
:10325000E01808950E94F9180E94FA180E940E19A9
:103260000E94C718811102C00E941A190895CF93B5
:103270009C01FB01C281CC2301F182519F45409703
:1032800020F58EEE820F0E94001FC0E08C2FCF91A0
:10329000089581E00E94610943E062E081E00E94BC
:1032A000DC04F3CF81E00E946D0943E062E081E03D
:1032B0000E94DC04EBCF82E0F6CF80319F4591F392
:1032C00021313F45C1F3C1E0E1CF2031EFE53E07B9
:1032D00001F382E021313F45E9F2D8CF2FEFFC0125
:1032E00020830895AEE0B0E0E8E7F9E10C94AE2B5E
:1032F0008D839E83162FAD81BE81EC91E150E33129
:1033000008F080C0F0E0ED5AF34D0C94952BED8160
:10331000FE8111828AE08283612F8D819E810E94CD
:1033200092242E96E6E00C94CA2BAD81BE811196B4
:103330008C91823079F08330D1F0813041F50E9458
:103340006C230E949B2BED81FE81628373838483B7
:103350009583E2CF0E94FA180E949B2BAD81BE811B
:1033600012966D937D938D939C931597D5CFED8099
:10337000FE80B2E0EB0EF11C00E0802F0E941F12D5
:10338000F70181937F010F5F0A30B9F7C5CF612F35
:103390008D819E810E946E19BFCFAD81BE81119635
:1033A0008C911197823099F712968D919D910D9085
:1033B000BC91A02DBC01CD010E949B2B0E940F1936
:1033C000ABCFED81FE814381628181810E94CF1D5F
:1033D000982789279827AD81BE8115969C938E9357
:1033E00014979ACFED81FE812481358132272327DE
:1033F00032274381628181810E94F11D8DCF0E941D
:103400000D1E8ACF8FEFAD81BE818C9385CF0E9438
:10341000A11EED81FE8181837FCF0E94A31E98278C
:1034200089279827AD81BE8112969C938E93119720
:1034300073CFED81FE81638170E081819281AF0164
:103440004C5F5F4F9827892798270E94A61E64CF5C
:10345000AD81BE8113966C91139770E011968D919A
:103460009C911297AD014C5F5F4F98278927982751
:103470000E94CB1E51CF0E94F01E4ECF0E94BD1D58
:10348000C8CFAD81BE8113966C91139770E01196F1
:103490008D919C911297AD014C5F5F4F98278927C2
:1034A00098270E944B1E38CFED81FE81638170E02A
:1034B00081819281AF014C5F5F4F982789279827C0
:1034C0000E946F1E29CF0895FC01680F791F8FEFAE
:1034D00091E36E177F0709F408952191822728E070
:1034E00030E087FF06C0880F892721503109C9F7CE
:1034F000F0CF880FFACFCF93DF93EC01FB018281ED
:10350000882309F415C1C136FDE5DF0749F048F508
:10351000C631ECE5DE07E0F4C230FCE5DF07F0F091
:103520000E94260E9093E5028093E402C631ECE5FA
:10353000DE0778F5C230FCE5DF07F0F48091E402A5
:103540009091E5020E94340E0E94DC0880E006C0E3
:103550009E012A5F3C452930310510F3DF91CF9160
:103560000895C53A9DE5D907D9F29E012D5A3D45EA
:103570002330310598F7D4CFFE01E350FC4580910C
:10358000E4028160E331F10550F5EA59F34D0C9402
:10359000952BC3308DE5D80770F4CA3F9CE5D90759
:1035A00068F2FE01EB5FFC45E830F105E8F5E7580D
:1035B000F34D0C94952BCD3AEDE5DE0719F190F41F
:1035C000C1368DE5D80709F4ACC09091E402892F8B
:1035D0008E7F90FF8160C53ADD4509F0AFCF8093C3
:1035E000E402ACCFCE3AEDE5DE0709F443C0CF3AB2
:1035F000DD4509F0A3CF9091E502892F877F93FFE6
:10360000886003C08091E50288608093E50296CFD0
:103610008091E4028260E3CF8091E4028460DFCF96
:103620008091E4028860DBCF8091E5028160EDCF7C
:103630008091E5028260E9CF8091E4028061CFCF82
:103640008091E4028062CBCF8091E4028064C7CF96
:103650000E94DC088091E4028068C1CF8091E4027E
:103660008C60BDCF8091E5028360CFCF8091E40272
:103670008E7FB5CF8091E502877FC7CF8091E4022E
:103680008D7FADCF8091E4028B7FA9CF8091E40242
:10369000877FA5CF8091E5028E7FB7CF8091E5022D
:1036A0008D7FB3CF8091E4028F7E99CF8091E40229
:1036B0008F7D95CF8091E4028F7B91CF0E94DC08B3
:1036C0008091E4028F778BCF8091E402837F87CF54
:1036D0008091E5028C7F99CF8091E40282FB99274B
:1036E00090F921E0922790FB82F990FB83F977CF44
:1036F0008091E502982F909591708E7F892B90FB99
:1037000081F983CF0E94DC089091E402892F97FB16
:1037100087F9805864CF81E00E94C00E0FCF80E00F
:10372000FBCF9091E402892F8F7E94FF806157CF69
:1037300081E014CFB0E0A0E0E0EAFBE10C94AD2B17
:10374000E82FF0E0E457FD4FD490282F26952695DA
:10375000269530E0F901E45DFC4F0491877010E09C
:10376000082E02C0159507950A94E2F701701127FB
:10377000F901E45EFC4FE490F12C082E02C0F594B0
:10378000E7940A94E2F791E0E922FF24F901E45F6B
:10379000FC4FC491D0E002C0D595C7958A95E2F759
:1037A000C170DD270115110519F081EE0E94DB05BE
:1037B000E114F10419F086EE0E94DB058D2D0E94C4
:1037C0007006E114F10419F086EE0E942606011538
:1037D000110519F081EE0E942606CD2B19F08CE21E
:1037E0000E947006CDB7DEB7E7E00C94C92BEF92CC
:1037F000FF920F931F93CF93DF93EC01162F0AE0F4
:103800008881882309F454C0813009F04EC0898131
:10381000813099F47E0122E0E20EF11C8A810E943F
:103820007006E7012196812F815050F3EFE9FFE008
:103830003197F1F700C00000F7CF823041F47E01EC
:1038400082E0E80EF11C8A810E94DB05EACF83301A
:1038500041F47E01E2E0EE0EF11C8A810E94260610
:10386000E0CF843011F02196DDCF2A81229690E0BE
:1038700080E0AE014F5F5F4F2053330B2A3031059C
:1038800048F0019778F2EFE9FFE03197F1F700C0D7
:103890000000F7CF089FB001099F700D1124C901E6
:1038A000860F971F2981EA01E4CF0E949A1BBACFA5
:1038B000CDB7DEB7E6E00C94CA2B8FE891E0019714
:1038C000F1F700C0000008950E94BD030895FF9223
:1038D0000F931F93CF93DF9380912A0192E0811180
:1038E00090E09093BC0282E0282F291B2093BB021A
:1038F00090912A018093BD0290912A018093BA028F
:1039000007EE11E0C5EED1E0AE01D80121E030E0D4
:103910008D91E82FE295EF70F0E0F1A08F70B90182
:1039200001C0660F8A95EAF7962F90959F2191A383
:1039300082A1862B82A3FA018191AF01E82FE29543
:10394000EF70F0E0F1A08F70B90101C0660F8A95A9
:10395000EAF7962F90959F2191A382A1862B82A3AF
:10396000F1E0A93EBF07A1F60E945D1C6091BD0277
:1039700042EC52E0FA018E2F841B861728F0CDB757
:10398000DEB7E5E00C94CB2BD8012D918D01A22F51
:10399000A295AF70B0E090968C9190E02F7002C02D
:1039A000959587952A95E2F781709991A92FA2950F
:1039B000AF70B0E090962C9130E09F7002C03595CA
:1039C00027959A95E2F790E020FD92E0892B81936C
:1039D000D2CFCF92DF92FF920F931F93CF93DF93BB
:1039E00010E000E084E0C82ED12C8091BD021817B1
:1039F00048F0802FDF91CF911F910F91FF90DF90C2
:103A0000CF900895C12FD0E0FE01E951FE4F808193
:103A1000E82FE295EF70F0E0E0A1F0E08F7002C0D7
:103A2000F595E7958A95E2F7E170DE01AB51BE4F5F
:103A30004C91A42FA295AF70B0E090968C9190E03D
:103A40004F7002C0959587954A95E2F780FD44C076
:103A500080E08E2BDE01AE53BD4FEC919E2F937014
:103A60009817C1F1EE0FEE0FE82BEC93F090BC022B
:103A7000F10EEF70F0E0EB52FE4FC254DD4F80814B
:103A80009881890F888320E0843064F0EF2DF0E086
:103A9000EA54FD4F80818F5F808360E08F2D0E940C
:103AA000641C21E088818D3F64F4EF2DF0E0EA543E
:103AB000FD4F80818150808361E08F2D0E94641CC6
:103AC00021E08881082E000C990BB6010E94812B01
:103AD0008883022B1F5F89CF82E0BBCF4091BD025C
:103AE00050E06091BC0270E06A547D4F0E94FA2B56
:103AF0000895B0E0A0E0EFE7FDE10C94AC2B6C0181
:103B0000D0E080E09091BA02D91740F081110E9474
:103B1000D90ECDB7DEB7E8E00C94C82BF090BB020D
:103B2000FD0E0F2D10E00A541D4FF601ED0FF11D93
:103B3000C081F8019081C91BEC2E1E1444F09C2F0B
:103B4000C7FD90E0C91BC1110DC0DF5FDBCFEA9458
:103B5000F80180818F5F808360E08F2D0E94641C5C
:103B600081E0EBCFCF5FF80180818150808361E0FD
:103B70008F2D0E94641C81E0E6CF84E0089550E020
:103B8000440F551F9CE0699F400D511D112498E77B
:103B9000899F400D511D1124CA01879608950F93E6
:103BA0001F93CF93DF938430C8F46A30B8F4463063
:103BB000A8F40E94BF1D8C010E94032CC82FD0E0E6
:103BC000DC2FCC27C80101960E94032C9E01282BD4
:103BD000C901DF91CF911F910F91089590E080E08E
:103BE000F8CF0F931F93CF93DF93122F032F8430BF
:103BF00078F46A3068F4463058F40E94BF1DEC0136
:103C0000602F0E94112C612FCE0101960E94112C71
:103C1000DF91CF911F910F910895B0E0A0E0E3E113
:103C2000FEE10C94AB2B9CEAC92E90E0D92ED0E09B
:103C3000C0E07601B12C20C00E946C0421E030E08D
:103C40008C171D0641F03CF0F801EE0FFF1FEE0D42
:103C5000FF1D25913491402F6B2D8C2F0E94F11D5B
:103C60000F5F1F4F0630110539F78CE0E80EF11C8D
:103C7000B3948AE0B81619F010E000E0DDCF219689
:103C800088E7C80ED11CC430D10599F6CDB7DEB790
:103C9000E9E00C94C72BEF92FF920F931F93CF9301
:103CA000DF93EC018A017C01E60EF71ECE018796B8
:103CB000CE15DF0529F4CDB7DEB7E6E00C94CA2BAC
:103CC000C03E21E0D20740F40E94032CF80180831B
:103CD0000F5F1F4F2196EACFF8011082F9CFB0E0B5
:103CE000A0E0E5E7FEE10C94AC2B8C016A017C01BD
:103CF000E60EF71EEC01CE018796CE15DF0529F4FE
:103D0000CDB7DEB7E8E00C94C82BC03E21E0D20767
:103D100040F4FE01E01BF10BEC0DFD1D60810E94E3
:103D2000112C2196E8CF462F672F843038F47A3053
:103D300028F4463018F40E94CF1D089580E090E0EA
:103D4000089580E1089589EF91E00895EF92FF9240
:103D50000F931F93CF93DF93EC018A017C01E60E52
:103D6000F71ECE01895F9D4FCE15DF0529F4CDB733
:103D7000DEB7E6E00C94CA2BC93F21E0D20740F43D
:103D80000E94032CF80180830F5F1F4F2196E9CF1B
:103D9000F8011082F9CFB0E0A0E0E1EDFEE10C9473
:103DA000AC2B8C016A017C01E60EF71EEC01CE0102
:103DB000895F9D4FCE15DF0529F4CDB7DEB7E8E06A
:103DC0000C94C82BC93F21E0D20740F4FE01E01B50
:103DD000F10BEC0DFD1D60810E94112C2196E7CFA7
:103DE000CF93DF93C7E0D2E060E0CE010E94112CB8
:103DF0002196C11584E0D807B9F7DF91CF910895D6
:103E0000A4E0B0E0E6E0FFE10C94AD2BF82E8FE0EB
:103E10008F1588F18FEF93E00E94032C81112BC046
:103E200007E012E0F1102BC08091680190916901C8
:103E3000A0916A01B0916B0189839A83AB83BC83A3
:103E4000DD24D39478018FEFE81AF80AC8010E94A4
:103E5000032C89831A82882371F09FEF980F933087
:103E6000D8F48A83D9820E5F1F4FC7010E94032CAA
:103E70008B83811112C02496E7E00C94C92B0115A5
:103E800084E01807C1F3C8010E94032C811101C00E
:103E9000FA940F5F1F4FC6CF870160E0CE010196F5
:103EA0000E94F71BCFCFCF93DF93EB0186319C4568
:103EB00011F50E94200D9A81992399F08A7A91E058
:103EC00009F490E09093C602811109C089E20E9432
:103ED000F80C0E94630D80E0DF91CF91089585E397
:103EE000F6CF8091C602811104C089E20E94000DC4
:103EF000F0CF85E3FBCF81E0EFCF0F931F93CF93FC
:103F0000DF93C42FD22FFC0182818823C9F0409314
:103F1000C9020E9460239093C8028093C70280E286
:103F20008C0F883040F4C77081E001C0880FCA95BB
:103F3000EAF70E947906DF91CF911F910F910895C2
:103F40001091C902141332C08091C7029091C80227
:103F50000E948923883C910548F5C0E2CD0F1D17CA
:103F6000B9F080E2810F883040F4177081E001C021
:103F7000880F1A95EAF70E948006C83048F481E05D
:103F80009D2F977001C0880F9A95EAF70E947906D5
:103F9000802F0E947006C83070F6D77081E001C093
:103FA000880FDA95EAF70E948006C5CF80E28C0F71
:103FB000883008F6C77081E001C0880FCA95EAF71B
:103FC000F2CF0F939C01CB01233F4CE53407A1F1C5
:103FD00090F4283DFCE53F0749F1293D4CE53407C5
:103FE000E9F1273D3C45C1F0FC0182818823E1F1E4
:103FF0001092C90219C0253FFCE53F0719F1263F81
:104000004CE5340729F1243F3C4571F707E225EEE2
:1040100044EE64EF7CE505C006E221EE41EE67ED7B
:104020007CE50E947D1F80E00F91089507E225EE58
:1040300045EE68ED7CE5F5CF06E221EE40EE63EF5C
:104040007CE5EFCF06E221EE42EE65EF7CE5E9CFBD
:1040500007E225EE46EE66EF7CE5E3CF08E221E0DD
:1040600045EE69ED7CE5DDCF81E0DECF8EE14A9B58
:1040700002C08150E1F74A9BFECF08955A9880E232
:104080008A95F1F75A9A0895FC013BE03A95F1F7C9
:1040900098E020E080E031E040E14A95F1F7880FB8
:1040A0004A9B02C08160232742E04A95F1F7000055
:1040B00040E14A95F1F7915079F790E19A95F1F73F
:1040C00099B132E03A95F1F7000040E14A95F1F7F5
:1040D00092FB992790F992272081920F908308955F
:1040E000A1E0B0E0E6E7F0E20C94AE2B19828C017F
:1040F0007C01E60EF11C0E151F0541F481E099814B
:10410000911180E02196E6E00C94CA2B0E943620A3
:10411000CE0101960E944420F80181938F01EBCFDC
:10412000529A5A9A089552985A9AEA9AE9E6F0E011
:1041300080818F7C808308956150770B91E001C06E
:10414000990F6A95EAF720E031E0911108C0222327
:1041500091F05A9A80E28A95F1F75A980895492F7A
:10416000482339F05A9A232740E24A95F1F7969569
:10417000ECCF5A98F9CF5A98EDCFFF920F931F9337
:10418000CF93DF93EC018C01060F111DC017D107EF
:1041900029F4CDB7DEB7E5E00C94CB2BF9900E9463
:1041A0003E2068E08F2D0E949C20F0CF1F920F923E
:1041B0000FB60F9211240F931F932F933F934F939A
:1041C0005F936F937F938F939F93AF93BF93EF937F
:1041D000FF93CF93DF930F92CDB7DEB719820E9482
:1041E0003620CE0101960E944420282F082F0695E4
:1041F00006950695982F92959570802F8570980F4B
:10420000892F837096959695890F8227877099815B
:10421000892B09F05CC0063008F059C080E18A950E
:10422000F1F75A9A529A82E08A95F1F700C05A98AB
:1042300088E0089F80011124D801A55DBE4F169625
:10424000ED91FC9117973097A9F06091D30170918F
:10425000D40114962D913C911597260F371F119676
:104260008D919C911297680F791F13964C9113971B
:104270008C910995F801E55DFE4F6381662351F04D
:104280002091D3013091D40184819581820F931FB5
:104290000E94BD200E943E2080E18A95F1F75A9845
:1042A00052985A9A80E18A95F1F7F801E55DFE4F40
:1042B0006081662351F02091D3013091D401818136
:1042C0009281820F931F0E9470200E9436200F90CF
:1042D000DF91CF91FF91EF91BF91AF919F918F911E
:1042E0007F916F915F914F913F912F911F910F910E
:1042F0000F900FBE0F901F9018950F931F93CF93A1
:10430000DF93EC0106970CF04CC0F894529A5A983F
:1043100085E08A95F1F700008C2F869585709C2F9B
:104320009570890F982F93708695869523E0CC0F12
:10433000DD1F2A95E1F7890F8E01082B0E943E2090
:1043400000C068E0802F0E949C2080E18A95F1F7F0
:1043500052985A9A4A9B1EC087E090E04A991CC026
:10436000FE01E55DFE4F63816623F9F02091D301E4
:104370003091D40184819581820F931F0E94702017
:10438000811113C0529A5A9A7894DF91CF911F915C
:104390000F91089500C0DECF019729F4529A5A9ADE
:1043A000789480E0F2CF00C0D9CF0E94362080E21E
:1043B0008A95F1F75A98529A80E18A95F1F7C55D8E
:1043C000DE4F6881662351F02091D3013091D401F2
:1043D00089819A81820F931F0E94BD200E943E20F6
:1043E000789481E0D2CF9093F9018093F8010895F9
:1043F0009093D0028093CF0208950E94D31381112D
:1044000003C08091CA020895E091CF02F091D002DA
:10441000309729F00190F081E02D0995089580E012
:104420000895E091CF02F091D002309721F0028000
:10443000F381E02D09950895DC01E091CF02F09120
:10444000D002309739F082E08C930480F581E02D22
:10445000CD01099508952091CD023091CE02281703
:10446000390771F09093CE028093CD02E091CF0294
:10447000F091D002309721F00680F781E02D099568
:1044800008952091CB023091CC022817390771F0A2
:104490009093CC028093CB02E091CF02F091D002B6
:1044A000309721F00084F185E02D09950895AC0145
:1044B0009C012E5F3F4F485F5F4F80E02417350718
:1044C00009F40895F90191919F019923B9F38F5F40
:1044D000F5CF9C01662351F0FC013296285F3F4FD7
:1044E0008191861729F0E217F307D1F780E008954C
:1044F00081E008959C01FC0132968FEF90E041919C
:10450000461751F08F3F19F4411101C0892F9F5F69
:104510009630A9F78F3F09F40895280F311D87FDC4
:104520003A95F901628308959C01FC013296285F57
:104530003F4F8191861303C0DF0111971C92E21750
:10454000F307B9F708950E947A2208950E949422F1
:104550000895FC01329686E0DF011D928A95E9F705
:10456000089546E050E00E94ED2B9C0181E0232B52
:1045700009F480E0089508950E94BB2208958111F6
:1045800006C081E08093D1020E94BC22089582E09F
:10459000F9CF83E08093D1020E94BC2208950E944B
:1045A000BF22089581E08093D1020E94BC22089529
:1045B0000E94D2220895089508950E94DC22089551
:1045C000089508950E94DB220895CF930E94E0226F
:1045D0000E9450130E94E122C0E08C2F0E941F1203
:1045E000811105C0CF5FCA30C1F7CF91089581E036
:1045F000FCCF85B7806885BF85B7806885BF089583
:104600001F921FB61F9211248F939F93AF93BF9356
:104610008091D202811113C08091FC029091FD0221
:10462000A091FE02B091FF024196A11DB11D8093A1
:10463000FC029093FD02A093FE02B093FF02BF9193
:10464000AF919F918F911F901FBE1F9018958091E1
:104650000403843031F10E9462051092D20288E195
:1046600090E020E40FB6F894A895809360000FBE08
:104670002093600083B7817F846083BF83B78160AC
:1046800083BF7894889583B78E7F83BF0FB6F894E5
:10469000A89580916000886180936000109260000E
:1046A0000FBE08950E94DC080E946705089582E00D
:1046B00084BD93E095BD9AEF97BD80936E000895F9
:1046C0002FB7F8948091FC029091FD02A091FE0218
:1046D000B091FF022FBF0895A4E0B0E0E2E7F3E25B
:1046E0000C94B22B8FB7F8942091FC023091FD020C
:1046F0004091FE025091FF0229833A834B835C83F1
:104700008FBF69817A818B819C812496E2E00C9431
:10471000CE2B9C014FB7F8948091FC029091FD0242
:10472000A091FE02B091FF024FBF821B930B089530
:10473000A4E0B0E0EEE9F3E20C94B02B462F572F43
:10474000BC012FB7F8948091FC029091FD02A091DA
:10475000FE02B091FF022FBF8C019D01041B150BBF
:10476000260B370BC901B8012496E4E00C94CC2B3E
:1047700078941F921FB61F9211248F939F93AF932B
:10478000BF938091FC029091FD02A091FE02B09136
:10479000FF020196A11DB11D8093FC029093FD02C2
:1047A000A093FE02B093FF02BF91AF919F918F91B2
:1047B0001F901FBE1F90189581E08093E00080E25B
:1047C0008093D8001092C9008FE19EE40197F1F721
:1047D00000C0000087E090EBDC0180930D03909314
:1047E0000E03A0930F03B093100388E19CE00FB673
:1047F000F894A895809360000FBE90936000FFCF5F
:1048000088E19CE00FB6F894A895809360000FBEF5
:1048100090936000FFCF8091DE020895089524E018
:104820002093E9002FEF3091E800215035FD06C0BC
:1048300035ED3A95F1F700002111F5CF2091E80010
:1048400025FF0BC050E040E066E070E00E94A22629
:104850008091E8008E778093E8000895CF93DF93EE
:10486000D82FC92F81E08093E9008FEF9091E80065
:10487000815095FD06C095ED9A95F1F700008111E4
:10488000F5CF8091E80085FF16C050E040E068E079
:1048900070E08D2F9C2F0E94A2268091E8008E77D9
:1048A0008093E80088E0ED2FFC2FA6EDB2E00190A8
:1048B0000D928A95E1F7DF91CF9108958093D3020D
:1048C0007093D5026093D402809104038430F9F48C
:1048D0008093E9008FEF9091E800815095FD06C02C
:1048E00095ED9A95F1F700008111F5CF8091E800E0
:1048F00085FF0DC050E040E063E070E083ED92E0A2
:104900000E94A2268091E8008E778093E8000895A7
:10491000BC0184E00E945E240895BC0183E00E94F3
:104920005E240895CF93603219F52091040324305A
:10493000F9F4C091E900CF703091EC00232F217081
:1049400030FD20E8C22B22E02093E9002091E8000E
:1049500020FF0BC050E040E060E270E00E94A22621
:104960008091E8008E778093E800CF70C093E900D3
:10497000CF91089580910303811109C00E94792885
:104980000E94D6288091E20084608093E20008951E
:104990001092030308950E94D222089560910003AB
:1049A00081E0611101C080E00E94C92208959091C8
:1049B000040381E0943009F080E0609100030E94DC
:1049C000CF22089542E061EC81E00E94F52742E2A7
:1049D00061EC84E00E94F52742E261EC82E00E94F3
:1049E000F52742E260EC83E00E94F52790910403F2
:1049F00081E0943009F080E0609100030E94BF22C2
:104A0000089580910603893089F148F4823009F4D1
:104A1000A1C0833009F45BC0813041F008958A3031
:104A200009F488C08B3009F46DC0089580910503A6
:104A3000813A09F04BC08091E800877F8093E800BD
:104A40008091090390910A03892B61F468E086ED57
:104A500092E070E00E9440278091E8008B7780937D
:104A6000E800089560E090E080E0F3CF80910503D6
:104A7000813261F58091090390910A038D7F892B22
:104A800029F58091E800877F8093E8008091E80015
:104A900082FF18C09091F3008091F200029731F4E8
:104AA0008091F100813011F0863021F48091F10085
:104AB0008093DE028091E8008B778093E8000E946B
:104AC000292804C0809104038111E0CF08958091CA
:104AD0000503813AD9F78091090390910A03892B44
:104AE000A9F78091E800877F8093E8008091E80033
:104AF00080FFFCCF809167018093F1008091E800F6
:104B00008E77DBCF80910503813201F78091090315
:104B100090910A03892BD1F68091E800877F8093DA
:104B2000E8000E94292880910703809367010E9472
:104B3000DC08089580910503813241F68091E800F8
:104B4000877F8093E8000E94292880910803809342
:104B5000DF02089580910503813A09F0B7CF809173
:104B6000E800877F8093E8008091E80080FFFCCF19
:104B70008091DF02C1CF84B7877F84BF0FB6F894DE
:104B8000A895809160008861809360001092600019
:104B90000FBE80E890E00FB6F89480936100909388
:104BA00061000FBE0E94D82208950E9479280E94B9
:104BB000D628E2EEF0E080818460808378940E94C1
:104BC000542B08958BE591E00E94F821089580917F
:104BD0000403853031F480910403853019F00E947C
:104BE000522308950E94272380910203882399F37A
:104BF0000E94E522882379F30E948C260E94DC081B
:104C0000EACFA0E2B0E0E7E0F6E20C94B22B8091AC
:104C10000403843009F583E08093E9008091E80083
:104C200082FF1AC08091E80090E085FF09C050E043
:104C300040E060E270E0CE0101960E94F12691E032
:104C40008091E8008B778093E800992329F060E257
:104C5000CE0101960E947219A096E2E00C94CE2B30
:104C60000E9433260895FC01CB01DA012F2F332750
:104C700023303105D1F070F42130310509F447C0FB
:104C80002230310569F48BE590E028E633E02D937E
:104C90003C93089521323105E9F02232310539F192
:104CA00090E080E030E020E0F2CFCF019927E130C2
:104CB00059F08230910559F0E4E6F3E0892B81F751
:104CC000849190E09F01E3CFE6E5F3E0F9CFECE3D8
:104CD000F3E0F6CF6330710518F7880F991FFC01D8
:104CE000EE50FE4F2081318189E090E0D0CF6330DB
:104CF0007105B0F6FB01EE0FFF1FE451FE4F20815E
:104D0000318187519E4FFC01808190E0C0CF82E1CC
:104D100090E023EC33E0BBCF80E189BD82E189BD27
:104D200009B400FEFDCF8091D8008F7D8093D8001C
:104D30008091E00082608093E0008091E00081FD3E
:104D4000FCCF0895AF92BF92CF92DF92FF920F9364
:104D50001F93CF93DF936C01EB018A010E944828D7
:104D6000F82E811123C00115110539F0F801808159
:104D70009181C81BD90BC80ED91EB12CA12C20972C
:104D8000A9F08091E80085FD22C08091E8008E772F
:104D90008093E80001151105A1F0F801808191814F
:104DA000A80EB91EB182A08285E0F82E8F2DDF916A
:104DB000CF911F910F91FF90DF90CF90BF90AF9058
:104DC00008950E9448288823D1F2F82EEFCFF601EB
:104DD00081916F018093F1002197FFEFAF1ABF0A15
:104DE000CECFAF92BF92CF92DF92FF920F931F93DD
:104DF000CF93DF936C01EB018A010E944828F82EC3
:104E0000811123C00115110539F0F80180819181CC
:104E1000C81BD90BC80ED91EB12CA12C2097A9F004
:104E20008091E80085FD22C08091E8008B77809317
:104E3000E80001151105A1F0F80180819181A80E0B
:104E4000B91EB182A08285E0F82E8F2DDF91CF911F
:104E50001F910F91FF90DF90CF90BF90AF9008957A
:104E60000E9448288823D1F2F82EEFCF8091F100DC
:104E7000F60181936F012197FFEFAF1ABF0ACECFE2
:104E8000FC01CB0120910B0330910C03261737074F
:104E900090F0009729F42091E8002E772093E80005
:104EA00040E0009751F4411108C08091E80082FF72
:104EB00031C080E00895C901F3CF2091040322237B
:104EC000A9F12530A9F12091E80023FD2DC0209102
:104ED000E80022FDEACF2091E80020FFE2CF3091E8
:104EE000F3002091F200009719F02830310558F0B6
:104EF00041E02830310509F040E02091E8002E77AC
:104F00002093E800CECF41914093F10001972F5FAD
:104F10003F4FE9CF80910403882341F0853041F071
:104F20008091E80083FFC1CF81E0089582E0089579
:104F300083E00895FC01CB0120910B0330910C0319
:104F40002617370790F0009729F42091E8002E7774
:104F50002093E80040E0009751F4411108C080918F
:104F6000E80082FF32C080E00895C901F3CF2091AC
:104F700004032223B1F12530B1F12091E80023FD93
:104F80002EC02091E80022FDEACF2091E80020FF0A
:104F9000E2CF3091F3002091F200009719F0283011
:104FA000310558F041E02830310509F040E020910A
:104FB000E8002E772093E800CECF44914093F10093
:104FC000319601972F5F3F4FE8CF809104038823EC
:104FD00041F0853041F08091E80083FFC0CF81E04F
:104FE000089582E0089583E00895982F973028F07F
:104FF0008F708093E90081E008959093E900242F59
:10500000762F50E0981731F07091EC002091ED0070
:105010005091F00021FD02C09F5FE8CF3091EB007E
:105020003E7F3093EB003091ED003D7F3093ED00FB
:105030003091EB0031603093EB007093EC002093E3
:10504000ED005093F0002091EE0027FDE5CF80E0C9
:1050500008958091050387FF13C08091E80082FFC7
:1050600006C08091E8008B778093E80004C08091AF
:1050700004038111F2CF0895809104038823D9F3AA
:105080008091E80080FFF8CF8091E8008E77ECCF28
:105090002091E4003091E50095E6A9012091EC0013
:1050A000822F817020FF06C08091E80080FF06C03B
:1050B00080E008952091E80022FD1AC08091040349
:1050C000882389F0853089F08091EB0085FD0FC041
:1050D0002091E4003091E50042175307F9F2915016
:1050E000E1F684E0089582E0089583E0089581E088
:1050F00008950E94E8280E94F028E0EEF0E0808108
:1051000081608083E8EDF0E080818F77808319BC37
:10511000A7EDB0E08C918E7F8C9380818F7E808311
:105120001092030308950F931F93CF93DF930E9470
:10513000E8280E94F028C8EDD0E088818F77888326
:1051400088818068888388818F7D888319BC1092CC
:10515000040310920003109202031092010300EE68
:1051600010E0F80180818B7F808388818160888353
:1051700042E060E080E00E94F527E1EEF0E080810F
:105180008E7F8083E2EEF0E0808181608083808189
:1051900088608083F80180818E7F80838881806130
:1051A0008883DF91CF911F910F910895E8EDF0E092
:1051B00080818F7E8083E7EDF0E080818160808355
:1051C00084E082BF81E0809303030E9493280895C6
:1051D000E8EDF0E080818E7F80831092E2000895F8
:1051E0001092DA001092E10008951F920F920FB60C
:1051F0000F9211242F933F934F935F936F937F935D
:105200008F939F93AF93BF93EF93FF938091E100B0
:1052100082FF0BC08091E20082FF07C08091E10015
:105220008B7F8093E1000E94532B8091DA0080FFF6
:1052300019C08091D80080FF15C08091DA008E7F60
:105240008093DA008091D90080FF94C080E189BD0D
:1052500082E189BD09B400FEFDCF81E080930403A3
:105260000E94BA248091E10080FF19C08091E20081
:1052700080FF15C08091E2008E7F8093E2008091D4
:10528000E20080618093E2008091D8008062809388
:10529000D80019BC85E0809304030E94CE2480913D
:1052A000E10084FF29C08091E20084FF25C080E1F5
:1052B00089BD82E189BD09B400FEFDCF8091D8008F
:1052C0008F7D8093D8008091E1008F7E8093E100F4
:1052D0008091E2008F7E8093E2008091E200816005
:1052E0008093E20080910003882309F449C084E0A0
:1052F000809304030E94D7248091E10083FF29C09A
:105300008091E20083FF25C08091E100877F809338
:10531000E10082E080930403109200038091E10099
:105320008E7F8093E1008091E2008E7F8093E20087
:105330008091E20080618093E20042E060E080E0E2
:105340000E94F5278091F00088608093F0000E9411
:10535000CB24FF91EF91BF91AF919F918F917F915E
:105360006F915F914F913F912F910F900FBE0F90D2
:105370001F90189519BC109204030E94C82472CF84
:105380008091E30087FD02C081E0B2CF83E0B0CF1F
:105390001F920F920FB60F9211242F933F934F93AA
:1053A0005F936F937F938F939F93AF93BF93CF93AD
:1053B000DF93EF93FF93D091E900DF708091EC00D1
:1053C000C82FC17080FDC0E81092E9008091F00004
:1053D000877F8093F00078940E940C2A1092E90055
:1053E0008091F00088608093F000CD2BCF70C09347
:1053F000E900FF91EF91DF91CF91BF91AF919F9124
:105400008F917F916F915F914F913F912F910F906D
:105410000FBE0F901F901895AAE2B0E0E2E1FAE209
:105420000C94B12B85E093E0FC0101962091F100F2
:10543000208323E08D309207B9F70E9401258091E7
:10544000E80083FF1EC180910503909106039A3006
:1054500008F017C1E92FF0E0EF57F34D0C94952BAE
:10546000803899F0823809F00CC1809109038F705F
:10547000873008F006C18093E9008091EB0085FB3E
:10548000882780F91092E90006C08091010390916D
:105490000203911182609091E800977F9093E80059
:1054A0008093F1001092F1008091E8008E77E5C0C2
:1054B000882309F4D3C0823009F0E3C08091070348
:1054C0008111D6C0809109038F702FEF280F2630ED
:1054D00008F0D7C08093E9002091EB0020FFC8C0FE
:1054E000933031F48091EB0080628093EB00C0C078
:1054F0009091EB0090619093EB0021E030E001C0CF
:10550000220F8A95EAF72093EA001092EA00809130
:10551000EB008860EACF8111B4C0109107031F77B8
:105520008091E3008078812B8093E3008091E800F4
:10553000877F8093E8000E9429288091E80080FFFF
:10554000FCCF8091E30080688093E30082E011113A
:1055500083E08093040395C08058823008F091C0A6
:1055600080910703909108038C3D23E09207A1F5F9
:1055700083E08A838AE289834FB7F894DE01139629
:1055800020E03EE051E2E32FF0E050935700E49139
:1055900020FF03C0E295EF703F5FEF708E2F90E029
:1055A000EA30C0F0C7968D939D932F5F243159F751
:1055B0004FBF8091E800877F8093E8006AE270E047
:1055C000CE0101960E9440278091E8008B7780935E
:1055D000E80057C0C096E7CF6091090370910A03B5
:1055E000AE014F5F5F4F0E943026BC01892B09F44A
:1055F00048C08091E800877F8093E80089819A8184
:105600000E949A27E1CF8038E1F58091E800877FFA
:105610008093E800809100038093F10045CF8111D1
:1056200030C090910703923060F58091E800877F49
:105630008093E800909300030E9429288091000342
:10564000882311F084E005C08091E30087FDFACF44
:1056500081E0809304030E94E22413C08091070339
:10566000813079F481E0933009F080E08093020387
:105670001092E9008091E800877F8093E8000E9403
:1056800029288091E80083FF0AC08091E800877F85
:105690008093E8008091EB0080628093EB00AA96F3
:1056A000E3E00C94CD2B0895CF93809104038823DD
:1056B000A1F0C091E900CF709091EC00892F81702A
:1056C00090FD80E8C82B1092E9008091E80083FDEE
:1056D0000E940C2ACF70C093E900CF9108950E94D8
:1056E0007928109204030895E8EDF0E0808180614C
:1056F00080838AE18A95F1F700C08091D90081709A
:10570000089597FB072E16F4009407D077FD09D073
:105710000E94D92B07FC05D03EF4909581959F4FB0
:105720000895709561957F4F0895EE0FFF1F0590C6
:10573000F491E02D09946927962769277827872710
:10574000782708952F923F924F925F926F927F92A7
:105750008F929F92AF92BF92CF92DF92EF92FF9281
:105760000F931F93CF93DF93CDB7DEB7CA1BDB0B2D
:105770000FB6F894DEBF0FBECDBF09942A883988D2
:1057800048885F846E847D848C849B84AA84B984D9
:10579000C884DF80EE80FD800C811B81AA81B981E5
:1057A000CE0FD11D0FB6F894DEBF0FBECDBFED01F9
:1057B0000895AA1BBB1B51E107C0AA1FBB1FA61758
:1057C000B70710F0A61BB70B881F991F5A95A9F7AA
:1057D00080959095BC01CD010895FB01DC0104C0CA
:1057E0008D910190801921F441505040C8F7881BD9
:1057F000990B0895FB01DC0102C001900D9241500C
:105800005040D8F70895F999FECF92BD81BDF89A1E
:10581000992780B50895A8E1B0E042E050E00C94EB
:10582000372C262FF999FECF92BD81BDF89A0197AA
:1058300000B4021639F01FBA20BD0FB6F894FA9AD8
:10584000F99A0FBE08950396272F0E94122C0E94EA
:10585000112C252F0E94122C242F0C94122C01960F
:10586000272F0E94122C0C94112CDC01CB01FC017F
:10587000F999FECF06C0F2BDE1BDF89A319600B4A9
:105880000D9241505040B8F70895F894FFCFC106EB
:10589000C106F206F20682079E0721072107A90723
:1058A00012082108210887199519CD19E119F21953
:1058B000FF19021A021A021A021A021A071A0D1AFC
:1058C000191A281A3B1A3E1A411A541A081B0C1BA3
:1058D000101B1C1B201B241B281B2E1B361B3E1BB6
:1058E000421B461B521B561B5A1B5E1B641B821B12
:1058F0006C1B181B4A1B4E1B321B681B781B8B1B17
:105900008F1B302A582A412B582A412B8B2AAC2A2C
:06591000412B032B0F2BBD
:105916000209000000030900000000090000000160
:105926000900000003040000000204000000010456
:1059360000000000040000005C02010000000100FD
:105946000000000000000501000000000000010644
:10595600000000000000020700000004090000002B
:10596600000000280850011E0A14010B242E240FE3
:10597600248D2488240E240100000000E200E900A2
:10598600EA00B500B600B700CD008301CC008A015D
:1059960092019401210223022402250226022702F3
:1059A6002A02B300B4006F007000E200E900EA00CA
:1059B600B500B600B700CD008301CC008A01920184
:1059C60094012102230224022502260227022A022A
:1059D600B300B4006F007000F4F5F6F73133946647
:1059E60097C6FF870200FF0100010000FFFF0000CD
:1059F600010001FF003432353640227B7204D503A4
:085A0600F7037A039303B303D5
:00000001FF
